:020000040800F2
:10000000E8370120A101000867420008FB32000820
:1000100065420008D10C0008497900080000000082
:100020000000000000000000000000007345000810
:100030004D100008000000007145000851460008FE
:10004000BB010008BB010008BB010008BB010008A0
:10005000BB010008BB010008BB010008BB01000890
:10006000BB010008BB010008BB010008BB01000880
:10007000BB010008BB010008BB010008BB01000870
:10008000BB010008910F0008BB010008BB0100087C
:10009000BB010008BB010008BB010008BB01000850
:1000A000BB010008156A0008096A0008BB010008C6
:1000B000BB010008BB010008BB010008BB01000830
:1000C000BB010008BB010008BB010008BB01000820
:1000D000BB010008BB010008BB010008BB01000810
:1000E000BB010008BB010008BB010008BB01000800
:1000F000BB010008BB010008BB010008BB010008F0
:10010000BB010008BB010008BB010008BB010008DF
:10011000BB010008BB010008BB010008BB010008CF
:100120009D0F0008BB010008BB010008BB010008CF
:10013000BB010008BB010008BB010008BB010008AF
:10014000BB010008BB010008BB010008BB0100089F
:10015000BB010008BB010008BB010008BB0100088F
:10016000BB010008BB010008BB010008BB0100087F
:10017000BB010008BB010008BB0100080000000033
:10018000BB010008BB010008DFF810D000F01CFC28
:100190000048004735710208AFF30080E8370120BE
:1001A0000648804706480047FEE7FEE7FEE7FEE711
:1001B000FEE7FEE7FEE7FEE7FEE7FEE7E9460008AA
:1001C000890100082DE9F05F0546002092469B4614
:1001D00088460646814640241BE02846414647465D
:1001E000224600F0D2FA53465A46C01A914110D323
:1001F00011461846224600F0B9FA2D1A67EB01089D
:100200004F4622460120002100F0B0FA17EB00090A
:100210004E41201EA4F10104DFDC484631462A4647
:100220004346BDE8F09F10B5431A934209D28318A4
:10023000881803E010F8011D03F8011D521EF9D2C1
:1002400010BD40EA01039B0703D009E008C9121F53
:1002500008C0042AFAD203E011F8013B00F8013B80
:10026000521EF9D210BDD2B201E000F8012B491E96
:10027000FBD270470022F6E710B513460A46044643
:100280001946FFF7F0FF204610BD421C10F8011B75
:100290000029FBD1801A704710B5002200E0521CE3
:1002A000835C8C5CA34201D1002BF8D1D8B2E1B2BF
:1002B000401A10BD034611F8012B00F8012B002A4B
:1002C000F9D1184670472DE9FE4F804681EA0300B8
:1002D000C00F0C46009021F0004123F00045B8EB20
:1002E0000200A94105D24046214690461C460B46D5
:1002F000024623F00040104347D0270DC7F30A0001
:10030000C3F30A510290401A019040286BDAC3F3FC
:10031000130040F4801B0098924620B10023D2EBDA
:10032000030A63EB0B0B01985946C0F1400250469B
:1003300000F01CFA06460D4650465946019A00F058
:1003400034FA10EB08006141002487EA115284EA74
:10035000E7731A4340D0009A62B3019A012A4FEA28
:10036000075215DC001B61EB02014FF0004202EA6C
:100370000752CDE90042001C41F5801132462B4660
:1003800000F06BFA03B0BDE8F08F40462146F9E774
:10039000001B61EB0201001C41F5801300185B415A
:1003A0002018A2F5001747EB030140EAD570B619F3
:1003B0006D4111E06D084FEA360645EAC0754FEA17
:1003C0000752001B61EB0201001C41F58011490836
:1003D0004FEA30000019514132462B4603B0BDE8C8
:1003E000F04F00F02BBA0098012240000023D0EB20
:1003F000020263EBE073009821464FEAE074B8EB29
:10040000000061EB0401E9E783F000435BE781F062
:10041000004158E72DE9FE4F81EA030404F000444F
:1004200021F0004100944FF0000B23F0004350EA0C
:1004300001045ED052EA03045BD0C3F30A54C1F353
:100440000A552C44A4F2F3340194A0FB0254C1F3E6
:10045000130141F48011C3F3130343F4801301FB30
:10046000024400FB034E840A970A44EA815447EA97
:100470008357A4FB076802958D0A05FB07854FEAA1
:10048000932C04FB0C542705029D4FEA065847EABB
:100490001637B5EB08056EEB070C870E920E47EA90
:1004A000811742EA8312A7FB0201B6EB0B0164EB52
:1004B00000042B0D43EA0C335E1844EB1C50DA4663
:1004C0005146E7FB0201C5F313044FEA0B3343EA3D
:1004D00014534FEA0432019C43EA0603A4F10C04CE
:1004E0000294009CCDE900B400F0B7F903B0BDE878
:1004F000F08F00200146F9E72DE9F04D81EA030471
:1005000004F0004B21F0004514464FF0000A23F0A0
:10051000004150EA050220D054EA01021DD0C5F383
:100520000A570246C5F31303C1F31300C1F30A5679
:1005300040F4801543F48013A7EB0608101BD64641
:1005400008F2FD3873EB050002D308F1010801E061
:1005500092185B41B8F1000F03DA00200146BDE8B4
:10056000F08D00204FF48011064684460EE0171BE4
:1005700073EB050705D3121B63EB050306434CEA37
:10058000010C49084FEA300092185B4150EA01071C
:10059000EDD152EA030012D082EA040083EA050199
:1005A000084305D0101BAB4106D20122002306E010
:1005B00000224FF0004302E06FF0010253101AEBEB
:1005C00006004CEB085110EB0A0041EB0B01BDE8B3
:1005D000F04D00F033B90EB5C10F80EAE070084469
:1005E000CA07002140F233438DE80E000A460B464D
:1005F00000F033F903B000BD0EB540F23341029173
:100600000021CDE900110A460B4600F026F903B09F
:1006100000BD70B5C1F30A5201F000450024C1F3DA
:10062000130140F2FF3341F480119A4201DA0020B5
:1006300070BD40F233439A42A2F2334203DC52428D
:1006400000F0A3F800E090402C43F1D0404270BD90
:10065000C1F30A5210B5C1F3130140F2FF3341F464
:1006600080119A4201DA002010BD40F233439A42D1
:10067000A2F2334203DC524200F087F810BD9040F2
:1006800010BD00F0004230F000400AD0C10D01F56D
:100690006071C0F3160042EA0151C20840071143DD
:1006A000704700200146704730B5041E71F1000408
:1006B00004DB4FF00044404264EB0101141E73F16F
:1006C000000405DB1C464FF00043524263EB040379
:1006D0008B4208BF824230BD30B5041E71F1000468
:1006E00004DB4FF00044404264EB0101141E73F13F
:1006F000000405DB1C464FF00043524263EB040349
:10070000994208BF904230BD01F0004330B421F05F
:10071000004150EA010206D00A0DA2F56072C1F351
:100720001301002A02DC30BC00207047440F44EA69
:10073000C104C100E01830BC00EBC25000F047B863
:1007400030B50B46014600202022012409E021FAA1
:1007500002F59D4205D303FA02F5491B04FA02F59E
:100760002844151EA2F10102F1DC30BD202A04DB71
:10077000203A00FA02F1002070479140C2F12003B4
:1007800020FA03F3194390407047202A04DB203AF3
:1007900021FA02F00021704721FA02F3D040C2F1A1
:1007A00020029140084319467047202A06DBCB17E8
:1007B000203A41FA02F043EAE07306E041FA02F31C
:1007C000D040C2F1200291400843194670470029E9
:1007D000A8BF7047401C490008BF20F001007047C7
:1007E00010B4B0FA80FC00FA0CF050EA010404BF27
:1007F00010BC704749B1CCF1200421FA04F411FA7D
:100800000CF118BF012121430843A3EB0C01CB1DC0
:100810004FEA00614FEA102042BF002010BC704731
:1008200000EBC35010440029A4BF10BC7047401C0B
:10083000490008BF20F0010010BC704710B5141E1D
:1008400073F1000408DA401C41F1000192185B4189
:100850001A4301D120F0010010BD2DE9F04D924660
:100860009B4611B1B1FA81F202E0B0FA80F2203277
:100870009046FFF77BFF04460F4640EA0A0041EA34
:100880000B0153465A46084313D0114653EA010060
:1008900019D0C8F140025046FFF777FF05460E46D3
:1008A000504659464246FFF761FF084305D00120F4
:1008B00004E020463946BDE8F08D0020054346EAB5
:1008C000E0762C4337430A986305E40AA0EB08005E
:1008D0000022FD0A44EA47540A3002D500200146AE
:1008E000E9E7010510196941DDE908450019694189
:1008F000BDE8F04DA2E72DE9F04D00231A461B1A82
:100900008A4103DB00200146BDE8F08DC1F30A52A5
:10091000C1F3130141F480154FF0000BD10702D150
:1009200000186D41521E0027044640F2FF11384660
:1009300001EB620A3E468046024600204FF48011D9
:10094000FFF723FFC2197141BB1846EB0100B4EB5E
:10095000030C75EB000C04D3E41A65EB0005174695
:100960000E46241908F101006D4180463428E3DD6C
:10097000F91946EB0600091BA84103D24FF0FF32DC
:10098000134601E0002213461BEB070046EB0A5119
:10099000BDE8F04DFFF752BFC1F30A52C1F3130196
:1009A00040F2FF3341F480119A4202DA00200146FE
:1009B000704740F233439A42A2F2334202DC524281
:1009C000FFF7E3BEFFF7D2BE064C074D06E0E06836
:1009D00040F0010394E8070098471034AC42F6D386
:1009E000FFF7D6FB307903085079030870B58C18EF
:1009F00010F8015B15F0070301D110F8013B2A1133
:100A000006D110F8012B03E010F8016B01F8016B1F
:100A10005B1EF9D12B0705D40023521E0DD401F81B
:100A2000013BFAE710F8013BCB1A921C03E013F8E4
:100A3000015B01F8015B521EF9D5A142D8D3002019
:100A400070BD10B50146806B026C12F0500F05D0DE
:100A5000026CD20626D501F001F810BD016C41F4FC
:100A60000071016401688A6812F0405F17D1027E4C
:100A7000AAB9CA6A12F4700F02D08A6852050ED45D
:100A80004A6822F020024A60016C21F480710164FE
:100A9000016CC90403D4016C41F00101016400F050
:100AA000DBFF10BD806BC26CBDE8104008461047EC
:100AB00010B5806B40210164416C41F00401416438
:100AC00000F0CCFF10BD10B5806B00F0C6FF10BD6C
:100AD000464910B54A6822F440324A604A68436881
:100AE0001A434A6001684A6822F480724A600168C9
:100AF0004A68036942EA03224A6001684A6822F0B0
:100B000040724A6001684A6883681A434A60016813
:100B10008A6822F400628A6001688A68C3681A439E
:100B20008A60816A6FF07062D14201688A6822F03F
:100B300070628A6001688A680CD0836A1A438A608E
:100B400001688A6822F040528A6001688A68C36A34
:100B50001A4301E022F040528A6001688A6822F05C
:100B600002028A6001688A68037E42EA43028A6060
:100B700090F82010002901684A680FD042F4006202
:100B80004A6001684A6822F460424A6001684A6823
:100B9000174C436A04EB43331A4301E022F400622A
:100BA0004A600168CA6A22F47002CA620168CA6AAD
:100BB000838B104C04EB03531A43CA6201688A68A2
:100BC00022F400728A6001688A6890F8303042EA44
:100BD00043228A6001688A6822F480628A60016820
:100BE0008A68406942EA8020886010BD0023014085
:100BF00000E0FFFF0000F0FF02F0A0BB2DE9F04194
:100C00000D460146002004464E1908E00702301B3D
:100C1000401E80B200F007F8641C3844E4B2AC42D5
:100C2000F4D3BDE8F08110B5044602F02FFC200A91
:100C3000A02101EB4000C0B202F0F8FB02F068FC1A
:100C4000E0B202F0F3FB02F063FC02F01FFCA12013
:100C500002F0ECFB02F05CFC002002F0B3FB044667
:100C600002F034FC204610BD2DE9F04116460D4639
:100C70000746002409E0E00025FA00F0C1B2381967
:100C800080B200F006F8641CE4B2B442F3D3BDE8CD
:100C9000F08170B50D46044602F0F8FB200AA02151
:100CA00001EB4000C0B202F0C1FB02F031FCE0B247
:100CB00002F0BCFB02F02CFC284602F0B7FB02F06D
:100CC00027FC02F003FCBDE870400A200BF0E2BBF9
:100CD000FEE700002DE9F0410D4D0024C5F8AC42BF
:100CE000022005F52B750BF0E3FB0A4F0126C7F830
:100CF0008062022007F520770BF0DAFB3C600220CF
:100D00000BF0D6FB2E60BDE8F04102200BF0D0BB0B
:100D10000080424200804042154810B5016886B00C
:100D200041F002010160016801F0020105910168D2
:100D300041F0200101600068012400F020000590CE
:100D40001120CDE900400320CDE902406946094861
:100D500001F03AFBE00200906946074801F034FBDD
:100D60000648C0F8AC420648C0F8804206B010BD44
:100D70003038024000040240001402400080424229
:100D80000080404270B50B480125C0F8AC520220EB
:100D90000BF08EFB084CC4F88052022004F520743E
:100DA0000BF086FB00202060BDE8704002200BF0B5
:100DB0007FBB000000804242008040422DE9F047A6
:100DC0000024DFF84C80134E824625460127A146B9
:100DD0006006040EC6F8807202200BF069FBD8F89A
:100DE0002C0208B1641CE4B2C6F8809202200BF019
:100DF0005FFB6D1CEDB2082DEAD3BAF1000F04D0F1
:100E0000FFF768FF2046BDE8F087FFF7BBFFF9E773
:100E100000804242008040422DE9F04700240E4FFE
:100E20000E4E0546A1464FF00108E809C7F8AC028E
:100E300002200BF03DFBC6F8808202200BF038FB4D
:100E4000C6F880926806641C050EE4B2082CECD348
:100E5000C7F8AC82BDE8F087008042420080404283
:100E600070B50C4C0120C4F8AC020B4DC5F88002E3
:100E7000022004F52B7405F520750BF019FB0026F4
:100E8000266002200BF014FB2E60BDE870400220AB
:100E90000BF00EBB008042420080404270B50B4C0C
:100EA0000020C4F8AC02022004F52B740BF000FB08
:100EB00007480125C0F8805202200BF0F9FA25609E
:100EC000BDE8704002200BF0F3BA000000804242FF
:100ED000008040422DE9F0410024124E01272546B2
:100EE000C6F8AC7202200BF0E3FA38460E4FC7F892
:100EF000800207E0641CE4B2FA2C03D9FFF7CEFFAE
:100F0000012506E002200BF0D3FAD6F82C020028C7
:100F1000F0D10020C7F8800202200BF0C9FA284661
:100F2000BDE8F081008042420080404210B5846BF1
:100F3000204600F011FF0120207110BD10B5846B18
:100F4000204600F0E3FE0120207110BD10B5846B37
:100F5000206940F004002061204600F0FFFE0120DF
:100F6000207110BD10B5846B206940F00400206131
:100F7000204600F0CDFE0120207110BD10B5806B21
:100F800000F0EBFE10BD10B5806B00F0C0FE10BD90
:100F9000014801F041B80000D0310120014801F0C2
:100FA0003BB800005C31012001681823CAB2103A36
:100FB000B2FBF3F2054B6FF30901032A9B5CC36597
:100FC00000D9091D8165084670470000A872030812
:100FD00010B5014600208B698A6A4FF0C07453B186
:100FE000B3F5005F15D072B1012A0CD0022A0AD0E5
:100FF000032A09D104E01AB1012A06D0022A03D13A
:10100000C96AC90100D5012010BDC96AA142FAD040
:1010100010BD002AF7D0012AF2D0022AF3D0032A09
:10102000F3D010BD30B50468256825F4802525600F
:10103000046863608368402B036803D0996000688C
:10104000C26030BD9A600068C16030BD704772B642
:10105000FEE7000030B5B3F5804F05D06FF070416A
:1010600040F82210002030BD8C690B688D68234346
:101070004C688989240144EA0524234343EA014159
:1010800050F82230014C23401943E9E70000F0CF2B
:1010900010B50A6850F8223023F0010340F82230DE
:1010A0008C68082C23D000234A682243CC681C4358
:1010B0000B6922431A434B690E4C1A43CB691A43FE
:1010C0000B6A1A434B6A1A438B6A1A43CB6A1A4358
:1010D0000B6B1A438B691343CA6B09681A4350F8A8
:1010E0002130A343134340F82130002010BD40239A
:1010F000DAE700007FFF0F0030B5D1E9003443EAA2
:1011000004138C688D89240244EA054423430C8A25
:10111000094D00EB820005EB045423430C7D6D0167
:1011200005EB0464896923430B43416801F04041A6
:101130000B434360002030BD0000F0FFF0B546488F
:1011400089B00024016841F002010160016801F0EA
:1011500002010791016841F0040101600068012566
:1011600000F00400079003200226CDE90450CDE9E9
:10117000026402A9394801F027F96803CDE90205A4
:1011800002A9374801F020F9FFF7C6FD354FC7F82F
:10119000B442142007F52D770BF07CF93D60322026
:1011A0000BF078F98DF8004001226946002000F02C
:1011B000BBF901226946A42000F0B6F916208DF88B
:1011C000000001226946802000F0AEF90C208DF865
:1011D000000001226946882000F0A6F90222694633
:1011E000A12000F04FF89DF80000302803D19DF8B1
:1011F000010003282AD00422694648F2401000F07A
:101200004DFA8DF80440694617A006F09FFB194877
:10121000009948F24005C0F802108DF800600122E4
:101220006946284600F048FB01226946E81D00F0A7
:1012300035FA0A200BF02EF98DF80040012269469C
:10124000284600F039FB09B00020F0BD43F203014D
:1012500009A006F07BFBF6E73038024000040240AC
:1012600000080240000041424354502049443A25BE
:10127000730D0A00000000204354502049443A25D1
:10128000780D0A002DE9F04115460E460446FFF799
:10129000E7FD7020FFF7C0FDFFF71CFEE0B2FFF78F
:1012A000BBFDFFF717FEFFF7DBFD7120FFF7B4FD75
:1012B000FFF710FE00246F1E09E0BC4201D00120A0
:1012C00000E00020FFF77AFD3055641CE4B2AC4228
:1012D000F3D3BDE8F041FFF7E1BD00002DE9F14790
:1012E00083B000268B4D8DF804604FF00A096878B2
:1012F000894C401CC0B2B0FBF9F209FB1201374621
:10130000687009B10A2871D2824884A1801CFEF756
:10131000C3FF4FF0010203A910B30220FFF7B2FF91
:101320009DF80C00010761D0297800F00F028A4275
:101330005CD8FF209040C04394F8208040F0C0006B
:1013400084F8200004EB4100A2894281E18A818275
:1013500004200BF09FF88DF80460DFF8C4A185E04D
:1013600048F24E18404600F099F99DF80C0001062D
:10137000D6D5297800F00F008842D1D88DF80460C6
:10138000012201A9404600F097FAC9E794F820101D
:1013900001228240114264D05E4860A1801CFEF7A9
:1013A0007BFF20B35F489DF80410042230F8110041
:1013B0006946FFF767FF94F830009DF80010C007FA
:1013C0009DF8010001F00F0100EB012138D09DF8DC
:1013D000040004EB4000C1829DF802209DF8031038
:1013E00002F00F0201EB022181813AE059E04D4801
:1013F0009DF804100A30042230F81100694600F00C
:101400004DF994F830009DF80110C0079DF80000D8
:1014100000EB01219DF8040004EB400005D0818120
:101420009DF802109DF8032018E0C1829DF802107B
:101430009DF8032001EB0222BAF80010891AD3E7C5
:10144000BAF80000411A9DF8040004EB40008181C5
:101450009DF802209DF8031002F00F0201EB02211B
:10146000C1829DF80400401C8DF804009DF8040022
:10147000297888428AD3A189BAF8002001279142AD
:1014800004D8E18ABAF80200814209D99DF80C001B
:1014900000F00F00012812D9E089A081208BE082A2
:1014A0006E701C481DA1801CFEF7F6FE01009DF821
:1014B0000C104FF6FF700FD0C90625D01BE028781E
:1014C00004EB40004189A181808AE08280208DF870
:1014D0000C0084F82080E4E701F08F01802913D00C
:1014E00009E000BF21F0800003E0A081E08201F06C
:1014F000E00084F820006878F02801D985F8019090
:1015000004B03846BDE8F08794F820100A06ECD500
:10151000E8E7000000000020100000203931310011
:10152000980300205AC702082DE9F04116460F46DD
:1015300004460025FFF794FC7020FFF76DFCFFF7D1
:10154000C9FCE0B2FFF768FCFFF7C4FC002408E028
:10155000385DFFF761FCFFF7BDFC050003D1641C9B
:10156000E4B2B442F4D3FFF799FC2846BDE8F08119
:101570002DE9F0433B4889B00024016841F00201A5
:101580000160016801F002010791016841F0040166
:1015900001600068022600F00400079001AA0125FE
:1015A00003270096DFF8C09082E8B00069464846FD
:1015B00000F00AFF6803CDE9000569462B4800F0FA
:1015C00003FFFFF7A9FBDFF8A880C8F8B4420A20A0
:1015D0000AF060FFC8F8B4520A200AF05BFF0397D4
:1015E0000096CDE901546946484600F0EDFE6420BE
:1015F0000AF050FF042205A948F2401000F04EF80E
:101600008DF8184005A91BA006F0A0F91CA105A89B
:10161000FEF742FE08BB48F240058DF81460012237
:1016200005A9284600F048F9012205A9E81D00F0A7
:1016300035F89DF81410602905D213A006F086F93C
:10164000012000F011F90A200AF024FF8DF814405F
:10165000012205A9284600F02FF909B00020BDE8B5
:10166000F0830000303802400004024000080240CD
:10167000000041424354502049443A25730D0A006A
:10168000393134370000000044656661756C7420A0
:101690005665723A25640D0A000000002DE9F041FC
:1016A00015460E460446FFF7DBFB2820FFF7B4FB88
:1016B000FFF710FC200AFFF7AFFBFFF70BFCE0B2CF
:1016C000FFF7AAFBFFF706FCFFF7CAFB2920FFF78D
:1016D000A3FBFFF7FFFB00246F1E09E0BC4201D013
:1016E000012000E00020FFF769FB3055641CE4B2E4
:1016F000AC42F3D3BDE8F041FFF7D0BB2DE9F14791
:10170000554E00244FF00A0A307885B0401CC0B214
:10171000B0FBFAF20AFB1201504DA046307009B13D
:101720000A286ED248F24E19012205A94846FFF751
:10173000B5FF00278DF8007001226946484600F089
:10174000BBF89DF8140001075BD000F00F010629DB
:1017500057D2FF2088408DF80000C04395F82090B4
:1017600040F0C00085F82000A889A882E88AE883B4
:101770004FF0010895F8201008FA04F0014225D036
:101780003748042201A930F81400FFF787FF95F8C5
:1017900030009DF80510C0079DF8040000EB012102
:1017A00005EB44000AD0C1829DF806109DF8072081
:1017B00001EB0221C1F54871818107E081819DF82B
:1017C00006109DF8072001EB0221C182641CE4B2DF
:1017D000052CCFD32349AA894FF001080B8828464E
:1017E0009A4203D8C28A49888A4209D99DF81410BE
:1017F00001F00F0101290BD9C1898181018BE98297
:1018000037709DF8140000F08F0080280AD01AE08D
:10181000818A8181C18BC18280218DF8141085F865
:101820002090EEE795F82000010603D520F0800017
:1018300085F820004FF6FF7025F80C0F6881287D91
:1018400000F0E00028753078F02801D986F800A073
:1018500006B04046BDE8F0870800002010000020D8
:1018600030C802089803002008B500218DF8001048
:101870008DF801000F4800BF435C9DF80020491C13
:101880001A44C9B28DF80020B829F5D3D0B2C043AC
:10189000401C8DF80000B822064948F2470000F0CD
:1018A0000BF80222694648F2FF0000F005F800201C
:1018B00008BD000078C702082DE9F04116460F4622
:1018C00004460025FFF7CCFA2820FFF7A5FAFFF71A
:1018D00001FB200AFFF7A0FAFFF7FCFAE0B2FFF7DE
:1018E0009BFAFFF7F7FA002408E0385DFFF794FA57
:1018F000FFF7F0FA050003D1641CE4B2B442F4D35C
:10190000FFF7CCFA2846BDE8F081000078B5002446
:10191000009490F83C20012A19D0012280F83C2044
:101920000A6807230568092A13D9EE680A3A02EB08
:10193000420293409E43EE600B788A680A3B03EBB9
:1019400043039A400368DD682A43DA6010E002200E
:1019500078BD2E6902EB420293409E432E610B78C4
:101960008A6803EB43039A4003681D692A431A619E
:101970004A681F23072A13D205686E6B521E02EBBA
:10198000820293409E436E630B790A885B1E92B27B
:1019900003EB83039A4003685D6B2A435A6327E095
:1019A00005680D2A12D22E6BD21F02EB82029340E1
:1019B0009E432E630B790A88DB1F92B203EB8303ED
:1019C0009A4003681D6B2A431A6311E0EE6A0D3AD0
:1019D00002EB820293409E43EE620B790A880D3B34
:1019E00092B203EB83039A400368DD6A2A43DA620A
:1019F000164B0568144A9D4206D10D68122D03D17D
:101A0000556845F48005556005689D4218D10B68FE
:101A1000102B01D0112B13D1536843F400035360F2
:101A2000096810290CD10A490A4A0968B1FBF2F188
:101A300001EB8101490000E0491E00910029FBD122
:101A400080F83C40002078BD002301400020014088
:101A50008C03002040420F0070477047704770B5FC
:101A600004004FF0000503D0206C002610B107E001
:101A7000012070BD204600F01DF8666484F83C60CB
:101A8000206CC00610D4206C20F4885040F0020076
:101A900020642046FFF71CF86664206C20F00200EA
:101AA00040F00100206400E0012584F83C602846F5
:101AB00070BD000070B586B0064614216846FEF77A
:101AC000D9FB1D493068884233D11C480025016884
:101AD00041F480710160006800F48070059017483F
:101AE0001438016841F0010101600068694600F0A6
:101AF00001000590082000900320CDE90105104861
:101B000000F062FC104C0F48C4E900050015A56008
:101B1000C4E90350800060618000C4E906052562C5
:101B20002046656200F048FB08B1FFF790FAB46305
:101B3000A66306B070BD000000200140443802409A
:101B400000000240106402405C310120F8B50446F8
:101B500000200E46009094F83C10012907D0012186
:101B600084F83C1021688B68DB0702D011E002206A
:101B7000F8BD8B6843F001038B604049404B096816
:101B8000B1FBF3F101EB410100E0491E0091002996
:101B9000FBD121688B68DB0503D58B6823F4807348
:101BA0008B6021688B68DB075DD0236C40F2016598
:101BB000AB4343F4807323644968490505D5216C20
:101BC00021F4005141F480512164216CC90404D5F1
:101BD000616C21F00601616400E0606484F83C00FF
:101BE000A16B2948274DC863A16B28480864A16BE5
:101BF0002748C86421686FF02200086020684168A7
:101C000041F0806141602068816841F480718160A9
:101C10002168134632464C31A06B00F037FB6868F0
:101C20001C49C006206806D0884224D1816811F082
:101C3000405F13D01FE08842F8D0174A904203D18A
:101C4000D1F80423D206F1D0144A904213D1D1F82E
:101C5000041301F01F011029E8D30CE0816841F062
:101C60008041816007E0206C40F010002064606CCF
:101C700040F0010060640020F8BD00008C030020EB
:101C800040420F0000230140430A0008C70A000831
:101C9000B10A00080020014000210140002201405B
:101CA00010B50446002094F83C1001290CD0012105
:101CB00084F83C1021688A6822F001028A60216859
:101CC0008A68D20702D01DE0022010BD8A6822F483
:101CD00080728A60A16B91F83520022A07D10846EC
:101CE00000F050F918B1216C41F0400121642168E5
:101CF0004A6822F080624A60216C21F4885141F0E8
:101D000001012164002184F83C1010BD7047704728
:101D1000704770B54379012B1CD001264671022310
:101D2000037105682B6802F0100440F6FE72A240B1
:101D30009343D1E900210A43A2401A432A60016873
:101D40000A68C023A3409A430A60067100214171CA
:101D5000084670BD022070BD70477047704770B56F
:101D6000040003D02079002510B105E0012070BDEA
:101D70006571204600F008F80220207125610120DD
:101D80002071002070BD000070B586B0054614219A
:101D90006846FEF76FFA1F492868884237D11E4807
:101DA0000026016841F000510160006800F0005019
:101DB000059019481038016841F001010160006880
:101DC000694600F001000590202000900320CDE935
:101DD0000106124800F0F8FA124C114820604FF04A
:101DE000606060604020C4E902060001206140009C
:101DF00060618000A0614011C4E907062046666268
:101E000000F0DAF908B1FFF722F9EC60A56306B03B
:101E100070BD0000007400404038024000000240E5
:101E2000A0600240D03101202DE9F04104460D466A
:101E30001746617900220698012920D00126667193
:101E400002212171F5B1D4F80CC03549CCF83C1011
:101E5000D4F80CC03349CCF84010D4F80CC0324947
:101E6000CCF84C102168D1F800C04CF0805CC1F86F
:101E700000C090B3042834D0082837D134E00220C1
:101E8000BDE8F081D4F808C02849CCF83C10D4F85B
:101E900008C02749CCF84010D4F808C02549CCF830
:101EA0004C102168D1F800C04CF4805CC1F800C02F
:101EB00020B1042805D0082808D105E0226808329E
:101EC00004E022680C3201E02268103220680168C8
:101ED00041F400510160A0680EE0FFE7226814326F
:101EE00004E02268183201E022681C322068016890
:101EF00041F000510160E068394600F0C7F9002167
:101F0000617120B1216941F004012161B8E72168C4
:101F10000A6805F010039E4032430A60B0E70000F3
:101F20003D0F0008870F0008650F00082D0F0008FF
:101F30007D0F00084D0F000870B504460068036867
:101F400001F010024FF480559540AB4303602068C8
:101F50000368012505FA02F29343036051B1E0687A
:101F600000F010F82068016821F00051016025712F
:101F7000002070BDA06800F005F82068016821F419
:101F80000051F3E72DE9F0410446876D00F01AFB9C
:101F9000064694F835000025022806D080206065AA
:101FA00084F834500120BDE8F0812068016821F0F8
:101FB000160101602068416921F080014161206CB7
:101FC00008B9A06C20B12068016821F00801016007
:101FD0002068016821F0010101600CE000F0F2FAD4
:101FE000801B052807D920206065032084F8350070
:101FF00084F83450D7E720680068C007EED194F821
:102000005C103F208840B860012084F8350084F8D7
:1020100034500020C7E700002DE9F84304464FF094
:102020000009CDF8009063484FF41651A56D006883
:10203000B0FBF1F72E6894F85C10082000FA01F16B
:1020400031420FD021680A6852070BD50A6822F086
:1020500004020A6094F85C108840A860606D40F04B
:102060000100606594F85C104FF0010808FA01F077
:10207000304208D021684969090604D5A860606D1E
:1020800040F00200606594F85C1004208840304203
:1020900008D021680968890704D5A860606D40F000
:1020A0000400606594F85C1010208840304218D01D
:1020B00021680968090714D5A860206801684903E8
:1020C00004D50068000308D5A16C07E00168C905C4
:1020D00003D4016821F008010160216C09B1204698
:1020E000884794F85C1020208840304231D0216825
:1020F0000968C9062DD5A86094F835000528206820
:10210000016806D0490347D5006800031DD4616CFF
:102110001CE021F0160101602068416921F0800176
:102120004161206C08B9A06C20B12068016821F0E1
:102130000801016094F85C103F208840A86084F892
:10214000358084F83490216D1FE0E16B09B12046A1
:102150008847606D00282BD0606DC00714D0052023
:1021600084F835002068016821F0010101600098C1
:10217000401C0090B84203D820680068C007F6D120
:1021800084F8358084F83490E16C002910D001B0D7
:102190002046BDE8F04308470168C905D5D4016869
:1021A00021F01001016084F8358084F83490CCE788
:1021B000BDE8F8838C0300202DE9F041044600F0CF
:1021C00001FA06465CB1022084F83500002584F847
:1021D00034502068016821F0010101600DE0012008
:1021E000BDE8F08100F0EEF9801B052805D920201C
:1021F0006065032084F83500F2E720680068C007B6
:10220000F0D12268116820480140D4E90103184345
:10221000D4E903363343184363691843A369184369
:10222000E3691843236A18430843616A042903D108
:10223000D4E90B1319430843106020684069666AAB
:1022400020F0070130460E43012704280CD1A06A74
:102250000643E06A40B12046FEF7BAFE20B14020B6
:10226000606584F83570BAE7206846612046FEF75D
:102270009BFE94F85C203F2191408160656584F865
:1022800035700020ACE700003F8010F02DE9F041F0
:102290000446866D90F83400002501280DD00120F9
:1022A00084F8340094F835700020012F07D084F8AA
:1022B000340002252846BDE8F0810220FBE7022712
:1022C00084F8357060652046FEF7ACFE94F85C102B
:1022D0003F208840B0602068016841F0160101602D
:1022E000206C20B12068016841F00801016020687D
:1022F000016841F001010160DCE7000070B50446AF
:1023000000F060F90546601C02D0044800780444DF
:1023100000F058F9401BA042FAD370BD80030020A2
:102320002DE9F04186B014216846FDF7A3FF20484F
:102330000168002939D1012101601E48002401688B
:1023400041F00101016000684FF4805800F0010085
:102350000C27CDF80080CDE90470032602250396F2
:10236000CDE901546946144800F02EF84FF680700C
:10237000CDE9000502AA694682E8D0000F4800F0C6
:1023800023F84CF23370CDE9000502AA694682E8D1
:10239000D0000B4800F018F802AA694682E8D00085
:1023A000CDE90085074800F00FF806B0BDE8F081E0
:1023B0007803002038380240001402400010024028
:1023C000000C0240001802402DE9F84FDFF8BCA1D4
:1023D0000022012503264FF00F090AF1040BAAF190
:1023E000040E00BF0B6805FA02F42340A34270D12B
:1023F0000F7907F00307012F01D0022F16D187684C
:102400004FEA420806FA08FC27EA0C07D1F80CC08C
:102410000CFA08FC4CEA070CC0F808C04768A74350
:102420000C79C4F3001494403C4344600C79E443B9
:10243000A4070AD0C4684FEA420C06FA0CF7BC4362
:102440008F6807FA0CF72743C7600C7904F0030480
:10245000022C12D1D40800EB840CDCF82040570782
:10246000FF0E09FA07F824EA0804D1F8108008FAE8
:1024700007F848EA0408CCF8208004684FEA420CC8
:1024800006FA0CF7BC430F7907F0030707FA0CF7BD
:10249000274307604C6814F4403F70D03C4C2768D9
:1024A00047F480472760246822F0030704F480443F
:1024B0000094384C07EB040CDCF8084897074FEA07
:1024C000177809FA08F7BC43334FB84202D1002706
:1024D00024E054E0314FB84201D101271EE0304FD3
:1024E000B84201D1022719E02E4FB84201D103278B
:1024F00014E02D4FB84201D104270FE02B4FB84212
:1025000001D105270AE02A4FB84201D1062705E08C
:10251000284FB84201D1072700E0082707FA08F73B
:102520002743CCF80878DAF800405746D1F804C0C1
:102530009C435FEACC2C00D51C433C60DBF8004098
:102540005F46D1F804C09C435FEA8C2C00D51C4345
:102550003C60DEF800407746D1F804C09C435FEA57
:102560008C3C00D51C433C60084F083F3C68D1F8C8
:1025700004C09C435FEACC3C00D51C433C60521C29
:10258000102AFFF42FAFBDE8F88F0000083C01408F
:102590004438024000300140000002400004024084
:1025A00000080240000C02400010024000140240EB
:1025B00000180240001C02400AB181617047090402
:1025C000FBE700000148806870470000800300209E
:1025D00002488168027811448160704780030020BE
:1025E0000B4810B5016841F400710160016841F4C5
:1025F00080610160016841F480710160032000F096
:102600006FF80F2000F006F800F024F8002010BD4D
:10261000003C024070B50D4D04464FF47A712878A5
:10262000B1FBF0F00A490968B1FBF0F000F046FB9D
:1026300048B9102C07D200222146501E00F030F875
:1026400000206C6070BD012070BD00008003002080
:102650008C0300200A4808B5016841F480410160FC
:10266000006800F4804000900548001F016841F0B8
:1026700080510160006800F08050009008BD0000AB
:1026800044380240002809DB00F01F02012191407C
:102690004009800000F1E020C0F800117047000000
:1026A000F0B40E4B1B680C46C3F30223C3F10705BD
:1026B000042D00D90425191D072901D2002300E0AB
:1026C000DB1E012606FA05F1491E214099409E4075
:1026D000761E16403143F0BC05F074B90CED00E0F5
:1026E000064900F0070208684FF6FF03184040EA69
:1026F0000220034A10430860704700000CED00E020
:102700000000FA052DE9F0470E46050065D0DFF818
:102710001481D8F80000F7B200F00700B04207D2E9
:1027200088F80070D8F8000000F00700B04254D1DB
:1027300028683D4C810712D5400703D5206840F436
:10274000E05020602878000703D5206840F46040FE
:1027500020602068A96820F0F000084320602878F5
:10276000C0072DD0304968680839012812D00228E6
:1027700013D0032811D00968890700292DDA2168B0
:1027800021F0030101432160FFF71CFF814641F264
:10279000883A0EE009688903EFE709688901ECE7E8
:1027A000FFF710FFA0EB0901514502D90320BDE856
:1027B000F0872068696800F00C00B0EB810FEFD162
:1027C000D8F80010404601F00701B14207D9077060
:1027D000006800F00700B04201D00120E7E7287848
:1027E000400705D52068E96820F4E05008432060E0
:1027F0002878000706D52068296920F4604040EA5F
:10280000C100206000F038F82168084AC1F30311C4
:10281000515CC8400649086006480068FFF7FAFEA8
:102820000020C4E7003C024008380240B0720308B0
:102830008C030020840300200448054900680968CF
:10284000044AC1F38221515CC84070478C030020C8
:1028500008380240C0720308044805490068096846
:10286000044AC1F34231515CC84070478C030020D8
:1028700008380240C0720308154810B5006810F00F
:102880000C02144813D04110042A0FD0082A0ED18C
:102890000F4C241F2268236802F03F025B0207D519
:1028A0002068C0F38810A0FB010106E0084610BDB7
:1028B0002168C1F38811A1FB00010023FDF782FC10
:1028C0002168C1F30141491C4900B0FBF1F010BD82
:1028D000083802400024F4002DE9F84F04006ED0BF
:1028E0002078DFF84C93C007A9F104054AD009F11C
:1028F00004000168C1F38101012908D00068C0F318
:10290000810002280AD1D9F80000400206D52868C3
:10291000800337D560680028E1D033E06068B0F507
:10292000803F10D0B0F5A02F286810D020F4803060
:102930002860286820F4802028606068A8B1FFF72C
:1029400041FE06460DE0286840F48030F4E740F48C
:1029500080202860F7E700BFFFF734FE801B642863
:1029600073D828688003F7D50CE0FFF72BFE0646E6
:1029700005E000BFFFF726FE801B6428F0D828681A
:102980008003F7D42078DFF8AC8280074FF0000A8C
:102990003ED5A748001D016811F00C0F08D0006853
:1029A000C0F3810002280BD1D9F80000400207D4FF
:1029B0002868800716D5E068012800D112E033E1CD
:1029C000E068B8B10120C8F80000FFF7FBFD06463B
:1029D00005E000BFFFF7F6FD801B0228C0D828687D
:1029E0008007F7D52868216920F0F80040EAC10087
:1029F00028600DE0C8F800A0FFF7E4FD064604E0FB
:102A0000FFF7E0FD801B02281FD828688007F7D455
:102A10002078000722D5864F87486169703771B1E9
:102A200001210160FFF7CEFD064604E0FFF7CAFD75
:102A3000801B022809D838688007F7D50EE0C0F857
:102A400000A0FFF7BFFD064605E082E0FFF7BAFDF4
:102A5000801B02287DD838688007F7D4207840078B
:102A600068D5DFF8CCB100270BF13C0BDBF8000098
:102A7000C0000BD4DBF8001041F08051CBF80010FF
:102A8000DBF80000012700F0805000906B4E3068AA
:102A9000C00510D4306840F480703060FFF792FDBC
:102AA000009005E0FFF78EFD0099401A022850D8EB
:102AB0003068C005F6D55E4EA0686C3601280FD090
:102AC0000528306810D020F001003060306820F018
:102AD00004003060A068B8B1FFF774FD00900FE00B
:102AE000306840F00100F4E740F004003060F7E7A0
:102AF000FFF768FD0099411A41F28830814266D89B
:102B000030688007F4D50EE0FFF75CFD009007E029
:102B1000FFF758FD0099411A41F28830814256D89A
:102B200030688007F4D42FB1DBF8001021F0805119
:102B3000CBF80010A069C8B33D49091D0968C1F36D
:102B4000810102294AD00228504607D0C8F8600007
:102B500000E03CE0FFF736FD04463BE04746C8F89E
:102B60006000FFF72FFD064605E000BFFFF72AFDD6
:102B7000801B02282BD828688001F7D4D4E90701EC
:102B80000843A16A2E4A490802EB0141626A41EA00
:102B90008211084394F82C1040EA0161C9F8001032
:102BA00001203866FFF70EFD044606E03EE000BF58
:102BB000FFF708FD001B022809D828688001F7D517
:102BC00034E000BFFFF7FEFC001B022802D90320FF
:102BD000BDE8F88F28688001F4D427E00128F7D0F9
:102BE000D9F80000E26900F4800191421CD1226A08
:102BF00000F03F01914217D147F6C071626A01406F
:102C0000B1EB821F10D1A26A4FF0FF3300F44031C4
:102C100003EB5202B1EB024F06D194F82C1000F0F6
:102C20007060B0EB016F01D00120D1E70020CFE749
:102C30000438024000004742800E474200700040C6
:102C40000000FFFF70B515460E46040003D094F84F
:102C5000490010B107E0012070BD002084F8480051
:102C6000204600F01DF804F108012068FEF710FA74
:102C70003146A2682068FEF73FFAD4E901022946EE
:102C8000236BFEF7E7F92168A06851F8202042F095
:102C9000010241F82020012084F84900002070BD85
:102CA000FFF73EBB4FF0E0210428086903D020F075
:102CB00004000861704740F00400FAE710B5401EB8
:102CC000B0F1807F01D3012010BD4FF0E02460619E
:102CD0000F21601704F076FE0020A061072020611C
:102CE000002010BD7047704770B590F83C20012A55
:102CF00032D0012480F83C40022280F83D20036855
:102D00005A689D6822F070060A6832435A60134B75
:102D100002689A4214D0B2F1804F11D0104B9A42FF
:102D20000ED0104B9A420BD00F4B9A4208D00F4B4B
:102D30009A4205D00E4B9A4202D00E4B9A4204D1D1
:102D4000496825F080031943916080F83D400021D7
:102D500080F83C10084670BD022070BD00000140A4
:102D60000004004000080040000C00400004014046
:102D7000004001400018004010B5040003D094F852
:102D80003D0010B107E0012010BD002084F83C0098
:102D9000204600F01FF8022084F83D00211D206825
:102DA00003F03EFE012084F8460084F83E0084F8DB
:102DB0003F0084F8400084F8410084F8420084F821
:102DC000430084F8440084F8450084F83D00002066
:102DD00010BD000008B50168B1F1804F0CD01F4A4A
:102DE0001F48914212D1016841F002010160006860
:102DF00000F00200009008BD1948001F016841F072
:102E000001010160006800F00100F3E7154A9142FA
:102E10000ED1016841F4003101600068002200F425
:102E20000030009006211920FFF73AFC192010E02D
:102E30000D4A9142DFD1016841F4802101600068B0
:102E4000002200F48020009011461A20FFF728FC91
:102E50001A20BDE80840FFF715BC0000000401403F
:102E600044380240004401400048014090F83D10C1
:102E7000012901D001207047022180F83D1001682E
:102E8000CA6842F00102CA6000681149884214D041
:102E9000B0F1804F11D00F4988420ED00E498842C0
:102EA0000BD00E49884208D00D49884205D00D4903
:102EB000884202D00C49884204D1816801F00701A0
:102EC000062903D0016841F001010160002070472C
:102ED000000001400004004000080040000C0040D9
:102EE0000004014000400140001800400168CA6829
:102EF00022F00102CA6001680A6A41F211131A4203
:102F000007D10A6A9B101A4203D10A6822F0010213
:102F10000A60012180F83D100020704770B504461A
:102F200090F83C000025012817D0012684F83C6069
:102F3000022084F83D002068826822F0770222F4A3
:102F40007F4282600868502838D00DDC20284FD09E
:102F500005DC90B3102811D14AE0022070BD302862
:102F600046D040280AD13BE060282FD070280DD0F1
:102F7000B0F5805F03D0B0F5005F12D0012584F872
:102F80003D60002084F83C00284670BDCB68D1E944
:102F90000121206803F0A8FD2068816841F07701D5
:102FA00009E0CB68D1E90121206803F09DFD20688C
:102FB000816841F480418160E1E719E0CA684968AD
:102FC000206803F0A3FD5021206806E0CA68496824
:102FD000206803F0ACFD6021206803F08FFDCEE790
:102FE000CA684968206803F091FD40212068F4E731
:102FF000226801461046F0E7704770B50446006845
:1030000001694FF00005C943890715D4C168C94358
:10301000890711D4E91E01610120207720688069A9
:103020008007204602D0FFF7E7FF04E000F098F8A1
:10303000204600F096F8257720680169C9434907C2
:1030400017D4C168C943490713D46FF00401016163
:10305000022020772068806910F4407F204602D04B
:10306000FFF7CAFF04E000F07BF8204600F079F893
:10307000257720680169C943090716D4C168C94387
:10308000090712D46FF0080101610420207720683D
:10309000C0698007204602D0FFF7AEFF04E000F0D1
:1030A0005FF8204600F05DF8257720680169C94384
:1030B000C90617D4C168C943C90613D46FF01001FB
:1030C0000161082020772068C06910F4407F204605
:1030D00002D0FFF791FF04E000F042F8204600F034
:1030E00040F8257720680169C943C90708D1C1683C
:1030F000C943C90704D1891E0161204600F032F896
:1031000020680169C943090609D4C168C943090691
:1031100005D46FF0800101612046FFF7E3FD2068D0
:103120000169C943490609D4C168C943490605D4A0
:103130006FF040010161204600F01EF8206801692F
:10314000C94389060BD4C168C943890607D46FF007
:10315000200101612046BDE87040FFF7C4BD70BD8D
:103160007047704700680349884202D1012023F06C
:10317000CBBA704700480140704770B5040004D0D6
:1031800094F83D00002510B106E0012070BD84F8E0
:103190003C50204600F022F8242084F83D002068AE
:1031A000C16821F40051C160204604F00BFB206887
:1031B000016921F4904101612068416921F02A01EF
:1031C00041612068C16841F40051C160256420203C
:1031D00084F83D0084F83E00002070BD10B586B034
:1031E000044614216846FDF745F8144920688842D2
:1031F00021D113480021026842F0100202600068E9
:1032000000F0100005900E481438026842F00102E8
:103210000260006800F0010005904FF4C06000906B
:103220000220CDE9010103200390072004906946A4
:103230000448FFF7C9F806B010BD000000100140B7
:1032400044380240000002402DE9F843044690F85B
:103250003D001F4616460D4620284CD1C5B1BEB1D3
:1032600094F83C00012846D0012084F83C004FF03F
:103270000008C4F84080212084F83D00FFF7A2F93F
:10328000A6848146E684A068B0F5805F03D004E0A0
:103290000120BDE8F883206928B12E465FF00005C3
:1032A00084F83C800EE00026FAE78021204604F0F6
:1032B0000FFBA0B9AEB116F8010B21684860E08C95
:1032C000401EE084E08C4B464FF00002009700283F
:1032D000EBD14FF04001204604F0FAFA30B1032060
:1032E000D7E735F8020BC0F30800E6E7202084F8A2
:1032F0003D000020CDE70220CBE7FEE770B50D4C86
:103300000025C4F8A0520C48016821F44021016056
:10331000016841F480210160C4F8A452022004F540
:10332000287409F0C5F801202060022009F0C0F8D7
:10333000256070BD00804042000402400E4810B578
:10334000016886B041F0020101600068012400F0CC
:10335000020005904FF44070CDE900040220CDE951
:10336000024069460548FFF72FF80548C0F8A44217
:10337000C0F8A04206B010BD303802400004024040
:103380000080404270B50D4C0025C4F8A0520C4896
:10339000016821F440210160016841F4802101604D
:1033A0000126C4F8A462022004F5287409F080F80C
:1033B0002660022009F07CF8256070BD0080404244
:1033C000000402402DE9F0478146164800240168B8
:1033D00021F44021016001680160134E2546274613
:1033E0004FF00108C6F8A072022009F061F8C6F893
:1033F000A0826006040ED6F8240208B1641CE4B270
:10340000012009F055F86D1CEDB2082DEAD3B9F191
:10341000000F04D0FFF772FF2046BDE8F087FFF7EA
:10342000B1FFF9E700040240008040422DE9F0417D
:1034300006461448016821F440210160016841F406
:1034400080210160104C0027C4F8A0723D464FF067
:103450000108F009C4F8A4027006060E022009F063
:1034600027F8C4F8A082022009F022F8C4F8A0725C
:10347000022009F01DF86D1CEDB2082DE9D3BDE85E
:10348000F0810000000402400080404270B50D4809
:10349000016821F440210160016841F4802101604C
:1034A000094C0120C4F8A402C4F8A002042004F5C9
:1034B000287408F0FDFF00256560042008F0F8FF7F
:1034C000256070BD00040240008040420E4810B5E7
:1034D000016821F440210160016841F4802101600C
:1034E0000A4C0020C4F8A002C4F8A402042004F589
:1034F000287408F0DDFF012020606060BDE8104006
:10350000042008F0D5BF00000004024000804042C3
:1035100070B512480024016821F44021016001685F
:1035200001600F4D0126C5F8A462304608F0C0FFC7
:10353000C5F8A062012008F0BBFF07E0641CE4B2FC
:10354000FA2C03D9FFF7C2FF012070BDD5F8240281
:103550000028F3D1C5F8A00270BD000000040240AD
:103560000080404270B5134886B00024016841F0E5
:1035700001010160016801F001010591016841F05C
:10358000100101600068012500F010000095059011
:10359000032602200396CDE9014069460648FEF75E
:1035A00013FF1C208DE8710069460448FEF70CFFEC
:1035B00006B070BD303802400000024000100240EA
:1035C00070B50B490646002408884D8821464543BE
:1035D000204600F0FFFA00F06FFCB0B24FF0D84187
:1035E00003E000BFA1F88000641CAC42FAD370BDB8
:1035F000980300202DE9F0478246A2EB0A00401C08
:103600000E4685B2981B401C87B200244FF0D84963
:10361000DDF8208016E0301981B2504600F0DAFA69
:1036200000F04AFC0020494608E000BF04FB050307
:1036300038F81320A1F88020401C80B2A842F5D3AE
:10364000641CA4B2BC42E6D3BDE8F0872DE9F04F7C
:1036500033492C240A4688712A2592882B2645F264
:10366000105B4FF4305E4FF448774FF0F00949F2A9
:10367000413A4FF4A07845F2103C4FF4F07358B142
:10368000A1F80080A1F80290524501D0624529D1ED
:103690000C814D818E8139E0A1F80090A1F8028063
:1036A000524501D0624508D10C814D818E81624521
:1036B00031D1A1F800804B802DE05A4508D1A1F806
:1036C00008E04FF4285048814FF42C50888106E0E0
:1036D000A2F5C85063381ED10C814E818D810B80BC
:1036E0004F8018E05A4508D1A1F808E04FF428505F
:1036F00048814FF42C50888106E0A2F5C850633809
:1037000004D10C814D818E810F804B80624502D1A6
:103710000B80A1F80280BDE8F04F002000F07EB9D8
:10372000980300202DE9FE4F161ACDE900104FF046
:1037300000085D1A47464FF0FF30002E02DD4FF0C3
:10374000010102E003D14FF000018B4602E0834605
:10375000C6F10006002D02DD4FF0010002E003D1AA
:103760004FF00000824602E08246C5F10005AE42FD
:1037700001DD344600E02C46601C4FF00009029049
:1037800018E0009881B2019880B200F019F8B044B6
:103790002F44A04504DD0198A8EB0408584401908B
:1037A000A74203DD00983F1B5044009009F101003F
:1037B0001FFA80F902998945E3DDBDE8FE8F00001C
:1037C00000B500F007FA00F077FB03484FF0D8414E
:1037D0000088A1F8800000BD480000202DE9FC4FC2
:1037E00080460025144603200F46A0EB440649E01E
:1037F000381B81B208EB050A01901FFA8AF0FFF727
:10380000DFFF781B81B208EB040900901FFA89F0F2
:10381000FFF7D6FF07EB050B1FFA8BF11FFA89F0B4
:10382000FFF7CEFF07EB04091FFA89F11FFA8AF0B0
:10383000FFF7C6FFA8EB050A1FFA89F11FFA8AF005
:10384000FFF7BEFFA8EB04091FFA8BF11FFA89F0FE
:10385000FFF7B6FF019881B21FFA8AF0FFF7B0FFB9
:10386000009881B21FFA89F0FFF7AAFF6D1C002EA5
:1038700003DA06EB8506B61D04E0281B06EB80067E
:10388000641E0A36A542B3DDBDE8FC8F2DE9F04386
:10389000444C91460246A08823460D464FEA112823
:1038A000160A5B89A0F51341413917D0A0F5A6414E
:1038B000103913D0A0F5AA41103914D02646A0F52E
:1038C000C857B1793688B61A761E633F25D0A0F561
:1038D000D047043F3DD0012951D051E0184600F0B7
:1038E000DEFA30463CE0184600F0D9FA304600F0E7
:1038F000CAFA6089401C80B200F0D1FAD0B200F060
:10390000C2FAA08900F0CBFA404600F0BCFAA089C8
:10391000401C80B200F0C3FA2DE001B9B2B21846E3
:1039200000F0BDFA160A304600F0ADFAD0B200F051
:10393000AAFA304600F0A7FAD0B200F0A4FAA089A3
:1039400000F0ADFA404600F09EFAE8B200F09BFAB3
:103950000EE0012900D1B2B2184600F0A0FA100A18
:1039600000F091FAD0B200F08EFAA08900F097FA38
:10397000404600F088FAE8B200F085FA08E0B2B2FA
:103980001146184600F0A2FAA089294600F09EFAD6
:103990004FF0D840218920F87E1FA0F80290BDE8A2
:1039A000F0830000980300200246012000E050430D
:1039B000491EC9B2FBD2704708B54FF0D840B0F8E5
:1039C0008000ADF80000BDF8000008BD10B502464B
:1039D000BE2000F064FA052000F055FA1046FCF70E
:1039E0000BFE9FED0C1B53EC112BFCF713FDFCF7AA
:1039F0002FFE80B200F047FA012000F044FAFF20C9
:103A000000F041FA002000F03EFABDE8104000202E
:103A100000F039BA6666666666660440F0B56C4CBE
:103A200000232146A279898841F66316012A01D034
:103A30001AB11BE0B14202D118E0B14216D10828F8
:103A400014D2DFE800F00406080A0C0E101206205B
:103A50000CE007200AE0042008E0052006E0012031
:103A600004E0002002E0032000E00220A1F513475B
:103A700045F2103245F21055413F05D0914203D036
:103A8000A94201D0B14277D1082812D2DFE800F074
:103A9000110406080A0C0E1080230AE0402308E0F7
:103AA000C02306E0202304E0602302E0A02300E01E
:103AB000E023A94202D14FF4585000E03620914251
:103AC00005D0A94203D0B14201D043F00803194602
:103AD00000F0FCF9A188B1420AD0980620886288DB
:103AE00002D5904202D303E0904201D92280608047
:103AF0006089A94241D100F0D2F9002000F0C3F959
:103B00006089401C80B200F0CAF9002000F0BBF9C7
:103B10006089801C80B200F0C2F92088401EC0F38A
:103B20000F2000F0B0F96089C01C80B200F0B7F936
:103B30002078401EC0B200F0A6F9A08900F0AFF9CD
:103B4000002000F0A0F9A089401C80B200F0A7F985
:103B5000002000F098F9A089801C80B200F09FF945
:103B60006088401EC0F30F2000F08DF9A089C01CB2
:103B700080B200F094F922E028E000F090F90020F3
:103B800000F081F9002000F07EF92088401EC0F38B
:103B90000F2000F078F92078401EC0B200F073F9D1
:103BA000A08900F07CF9002000F06DF9002000F001
:103BB0006AF96088401EC0F30F2000F064F9A07815
:103BC000BDE8F040401EC0B200F05DB9F0BD00009D
:103BD00098030020F0B53F4A0D460446060A918836
:103BE00010462F0A4089A1F51343413B28D0A1F587
:103BF000A643103B24D0A1F5C853633B2FD0A1F5B9
:103C0000AA43103B64D100F04AF9304600F03BF97A
:103C10005089401C80B200F042F9E0B200F033F964
:103C2000908900F03CF9384600F02DF99089401C4D
:103C300080B200F034F9E8B2BDE8F04000F023B9FA
:103C400000F02DF9304600F01EF9E0B200F01BF94B
:103C5000908900F024F9384600F015F9EBE79179E6
:103C600029B300F01CF9304600F00DF9E0B200F085
:103C70000AF91088401EC0F30F2000F004F91078F4
:103C8000401EC0B200F0FFF8908900F008F93846F5
:103C900000F0F9F8E8B200F0F6F85088401EC0F3E2
:103CA0000F2000F0F0F89078401EC0B2C4E71188F1
:103CB000091B491E8CB200F0F2F8002000F0E3F876
:103CC000002000F0E0F8200A00F0DDF8E0B2D9E7CB
:103CD000F0BD0000980300202DE9FF4F1D460C4663
:103CE0008A46580700D0012000EBD500690810FB78
:103CF00001F0203A00F0FF09D0B20026DFF8A4B0AE
:103D000002904BE00C2D11D0102D14D0182D17D08F
:103D1000202D45D12449029801EBC0104FF0000836
:103D2000875D380613D52148026814E002982049BF
:103D300000EB400008E01F49029801EB0010EDE79E
:103D400002981D4900EBC00001EB8000E6E70D98EA
:103D500028B91648426821460098FFF797FD780673
:103D6000070E641CBBF80200A4B2A04218D9A4EB51
:103D70000A00A84209D100985446401C80B2009025
:103D8000BBF8001081420BD906E008F1010000F0F9
:103D9000FF08B8F1080FC4D3761CF6B24E45B1D374
:103DA000BDE8FF8F9803002000E0020848000020D3
:103DB00040C80208B4CC0208A4D202082DE9FF4F83
:103DC00081B00026DDF838A01D4693468146344672
:103DD000B0464FEA5A0727E0281B401EC1B20A200E
:103DE000FFF7E2FDBBFBF0F00A21B0FBF1F201FBB3
:103DF000120026B9691E8C4201DA48B10126303022
:103E0000C2B207FB049080B25346CDF8008006E0B2
:103E100007FB049080B253462022CDF8008002991F
:103E2000FFF75AFF641CE4B2AC42D5D305B0BDE83D
:103E3000F08F2DE9F84F044600F0FF0910190D46E8
:103E4000DDE90AB61FFA80F8581987B24FF0000A68
:103E500012E0444503D305EB0B004C4685B2BD424E
:103E60000FD25B4629462046CDF800A0FFF734FF6D
:103E700004EB5B0084B2761C3278A2F120005E284D
:103E8000E7D9BDE8F88F01B5BDF80000ADF8000036
:103E9000BDF800004FF0D841A1F8800008BD01B581
:103EA000BDF80000ADF80000BDF800004FF0D841AB
:103EB000A1F87E0008BD000003484FF0D8410089FA
:103EC000A1F87E0070470000980300204FF0D84210
:103ED00022F87E0F518070477FB500241648009469
:103EE000019402941349039401604FF48031C0E9B6
:103EF00001140461047680F820400903C1620125A1
:103F0000C5614FF06061C460816280F830404561F6
:103F1000FDF7A5FD08B1FDF79AF80320CDE90005EE
:103F2000694602940448FDF7F1FC002801D0FDF732
:103F30008EF87FBD00200140143101201CB5002007
:103F40000D49009001900B4808600846FDF707FFF7
:103F500008B1FDF77CF82420009002200190102287
:103F600069460548FDF7D5FE002801D0FDF76FF83A
:103F70001CBD000000740040BC310120114808B590
:103F8000016841F400110160016801F40011009121
:103F9000016841F4800101600068002200F48000A3
:103FA000009011461120FEF77BFB1120FEF76AFB03
:103FB000002211463820FEF773FBBDE80840382088
:103FC000FEF760BB3038024010B58EB01C21684649
:103FD000FCF750F91C2107A8FCF74CF91A484FF0E0
:103FE00020411022016019494160062181600021B1
:103FF000C160C0E904128161C16113020162C0E9BC
:1040000009139302C0E90B134163816341640F20DC
:104010003C230090CDE9010303AC112384E80E009A
:1040200009240691CDE9074009AC082084E80F0077
:104030000D9107AA69460448FEF704FE002801D046
:10404000FDF705F80EB010BD30320120040100A0CC
:1040500070B586B014216846FCF70CF9224800249C
:10406000016841F020010160016801F02001059123
:10407000016841F080010160016801F08001059153
:10408000016841F001010160016801F00101059141
:10409000016841F010010160016801F01001059113
:1040A000016841F008010160016801F00801059113
:1040B000016841F04001016000680C4E00F04000D2
:1040C0004FF400750590002229463046FEF774FA39
:1040D00001200095CDE90104694630460394FEF7BE
:1040E00073F906B070BD0000303802400014024081
:1040F0000C4810B50A49016044F29F11416000214B
:1041000042F20F72C0E9021201618161FEF734FED2
:10411000002803D0BDE81040FCF799BF10BD000097
:1041200000440140103301200B4810B509490160DB
:10413000A7214160002140F2E732C0E9021201618B
:104140008161FEF719FE002803D0BDE81040FCF79E
:104150007EBF10BD004801405833012010B586B025
:1041600000241748009401940294039404944FF09F
:1041700080410594C0E9001441F26701C0E90241A1
:10418000802104618161FEF7F7FD08B1FCF75FFF54
:104190004FF48050009069460948FEF7BFFE08B111
:1041A000FCF755FF2020CDE9040404A90448FEF7DC
:1041B0009BFD002801D0FCF74AFF06B010BD0000AF
:1041C0008032012010B586B0002417480094019475
:1041D00002940394049413490594C0E900145321F4
:1041E000C0E9024180210461C0E90541FEF7C4FD38
:1041F00008B1FCF72CFF4FF48050009069460A4844
:10420000FEF78CFE08B1FCF722FF2020CDE9040464
:1042100004A90548FEF768FD002801D0FCF717FF48
:1042200006B010BD00040140C83201200C4810B592
:104230000A4901604FF4E1314160002181600C22A4
:10424000C160C0E904128161C161FEF796FF0028D8
:1042500003D0BDE81040FCF7FABE10BD00100140CD
:10426000A0330120FEE7FEE770B588B024480024A3
:104270008DF80040016841F002010160016801F021
:1042800002010691016841F004010160006801A982
:1042900000F0040006900220012581E8310003208F
:1042A00004901848FEF790F86803CDE9010501A9CC
:1042B0001548FEF789F8FCF72FFD144EC6F8B442F6
:1042C000642006F52D7608F0E5F83560642008F0E6
:1042D000E1F8012000F014F9012269464FF4506022
:1042E00000F01CF89DF8001009A003F02FFB9DF8CA
:1042F0000000802802D0012008B070BD0020FBE73C
:1043000030380240000402400008024000004142F0
:104310004354502049443A25780D0A002DE9F041D4
:1043200015460E460446FCF79BFDB220FCF774FDD3
:10433000FCF7D0FD200AFCF76FFDFCF7CBFDE0B2E7
:10434000FCF76AFDFCF7C6FDFCF78AFDB320FCF71D
:1043500063FDFCF7BFFD00246F1E09E0BC4201D0E5
:10436000012000E00020FCF729FD3055641CE4B278
:10437000AC42F3D3BDE8F041FCF790BD2DE9F14725
:10438000564E00242DED048B4FF00A0981B0307891
:10439000DFF84C81401CC0B2B0FBF9F209FB1201FE
:1043A0002746307009B10A2877D2012205A90020DA
:1043B000FFF7B4FF9DF81400C10672D000F01F0093
:1043C00040F0C000454688F8200001279FED458B4E
:1043D0009FED469B95F8200007FA04F108424FD064
:1043E00044480422694630F81400FFF797FF95F817
:1043F00030009DF80210C0079DF8030000EB01207B
:1044000022D0FCF7F9F853EC182BFCF703F8FCF773
:104410001FF905EB440AAAF816009DF801009DF863
:10442000001000EB0120FCF7E7F853EC192BFBF729
:10443000F1FF9FED311B53EC112BFBF7E8FFFCF76D
:1044400007F9AAF80C001BE0FCF7D6F853EC182B80
:10445000FBF7E0FFFCF7FCF805EB440AAAF80C00B8
:104460009DF801009DF8001000EB0120FCF7C4F856
:1044700053EC192BFBF7CEFFFCF7EAF8AAF816006D
:10448000641CE4B2052CA5D30127A989002019B921
:10449000E98A09B98DF8140030709DF81400C0063F
:1044A00010D198F82000010602D520F0800007E026
:1044B0004FF6FF71A8F80C10A8F8161000F0E000F5
:1044C00088F820003078F02801D986F8009001B0F3
:1044D0003846BDEC048BBDE8F887000007000020DB
:1044E000100000207B14AE47E17AD43FD881734698
:1044F00094F6D23F6EC70208000000000000894019
:1045000008B500218DF8001010B180208DF8000052
:10451000012269464FF4506000F001F808BD2DE912
:10452000F04116460F4604460025FCF799FCB220E0
:10453000FCF772FCFCF7CEFC200AFCF76DFCFCF7E4
:10454000C9FCE0B2FCF768FCFCF7C4FC002408E0FE
:10455000385DFCF761FCFCF7BDFC050003D1641C71
:10456000E4B2B442F4D3FCF799FC2846BDE8F081EC
:104570007047704770B50E462DED088BB0EE409A2F
:10458000054600249FED268BFCF736F841EC100B16
:1045900053EC102B9FED240B51EC100BFBF7ACFFF1
:1045A00041EC1A0B37E000BFB0EE480AF0EE680AA3
:1045B00003F01AFA9FED1E1B51EC100B53EC112B5C
:1045C000FBF781FE41EC1B0B19EE100AFCF759F8C2
:1045D0009FED191B53EC112BFBF71CFF53EC1B2B0E
:1045E000FBF718FF9FED161B53EC112BFBF712FF87
:1045F0009FED151B53EC112BFBF77EFFFCF728F802
:1046000026F8140053EC1A2B51EC180BFBF75BFE49
:1046100041EC180B641CAC42C6D3BDEC088B70BDDA
:104620000000000000000000182D4454FB21194038
:10463000000000000000F03F000000000000E03F2C
:10464000000000000000B0406666666666660A40CC
:10465000FDF7BEBF30B593B030216846FBF70AFEC8
:1046600014210CA8FBF706FE1D480025016841F047
:1046700080510160006800F0805011901948016875
:1046800041F4804101600068022400F480401190F0
:1046900001200090000401908001CDE9064008AAA5
:1046A0000420A82182E813000B906846FEF714F955
:1046B00008B172B6FEE70CA90F2081E831004FF473
:1046C000A0500F904FF48050109005210CA8FEF7D9
:1046D00019F8002801D072B6FEE713B030BD000013
:1046E00040380240007000400248016841F4700107
:1046F0000160704788ED00E02DE9F05F3220FDF7A2
:10470000FDFDD320FFF7CBFBFFF756F9FD4CA08052
:10471000FFF752F9A080FFF74FF94FF6FF7909EA4A
:104720000020A080FFF748F9A18849F241380843EA
:10473000A08045F2103645F2105541F6631740450A
:1047400048D0D420FFF7ABFBFFF736F9A080FFF786
:1047500033F9A080FFF730F909EA00204A46A0802B
:10476000FFF72AF9A1880843A080B04232D04FF465
:104770005A40FFF794FBFFF71FF9A0804FF45B400E
:10478000FFF78DFBFFF718F902EA0020A0804FF435
:104790005C40FFF784FBFFF70FF9A1880843A08076
:1047A000B0F5004F7ED0A84214D0A120FFF777FBD0
:1047B000FFF702F9A080FFF7FFF802EA0020A080CF
:1047C000FFF7FAF8A1880843A0F5AE41A08061394F
:1047D00000D1A780A188CCA003F0B8F8A0884045FC
:1047E0007ED1CF20FFF75BFB0020FFF74CFBC12001
:1047F000FFF749FB3020FFF746FBED20FFF74FFBAB
:104800006420FFF740FB0320FFF73DFB1220FFF77A
:104810003AFB8120FFF737FBE820FFF740FB8520BC
:10482000FFF731FB1020FFF72EFB7A20FFF72BFB61
:10483000CB20FFF734FB3920FFF725FB2C20FFF7B7
:1048400022FB0020FFF71FFB3420FFF71CFB022098
:10485000FFF719FBF720FFF722FB2020FFF713FBE0
:10486000EA20FFF71CFB0020FFF70DFB0020FFF7FD
:104870000AFBC020FFF713FB1B20FFF704FBC1203E
:10488000FFF70DFB0120FFF7FEFAC520FFF707FB3E
:104890003020FFF7F8FA3020FFF7F5FAC720FFF7CE
:1048A000FEFA00E0B5E0B720FFF7EDFA3620FFF79B
:1048B000F6FA4820FFF7E7FA3A20FFF7F0FA55201A
:1048C000FFF7E1FAB120FFF7EAFA0020FFF7DBFA81
:1048D0001A20FFF7D8FAB620FFF7E1FA0A2000E025
:1048E00099E0FFF7D0FAA220FFF7CDFAF220FFF708
:1048F000D6FA0020FFF7C7FA2620FFF7D0FA0120EA
:10490000FFF7C1FAE020FFF7CAFA0F20FFF7BBFA62
:104910002A20FFF7B8FA2820FFF7B5FA0820FFF79A
:10492000B2FA0E20FFF7AFFA0820FFF7ACFA5420D6
:10493000FFF7A9FAA920FFF7A6FA4320FFF7A3FA89
:104940000A20FFF7A0FA0F20FFF79DFA0020FFF7DB
:104950009AFA0020FFF797FA0020FFF794FA002058
:10496000FFF791FAE120FFF79AFA0020FFF78BFAA0
:104970001520FFF788FA1720FFF785FA0720FFF7C1
:1049800082FA1120FFF77FFA0620FFF77CFA2B202E
:10499000FFF779FA5620FFF776FA3C20FFF773FA13
:1049A0000520FFF770FA1020FFF76DFA0F20FFF7D0
:1049B0006AFA3F20FFF767FA3F20FFF764FA0F20FB
:1049C000FFF761FA2B20FFF76AFA0020FFF75BFA86
:1049D0000020FFF758FA0120FFF755FA3F20FFF7B4
:1049E00052FA2A20FFF75BFA0020FFF74CFA00206A
:1049F000FFF749FA0020FFF746FAEF20FFF743FAE6
:104A00001120FFF74CFA7820FDF778FC292001F0FF
:104A10000BBFA580DEE6B04273D1ED20FFF73FFA71
:104A20000120FFF730FAFE20FFF72DFAEE20FFF706
:104A300036FADE20FFF727FA2120FFF724FAF120CB
:104A4000FFF72DFA0120FFF71EFADF20FFF727FA04
:104A50001020FFF718FAC420FFF721FA8F20FFF784
:104A600012FAC620FFF71BFA0020FFF70CFAE2202B
:104A7000FFF709FAE220FFF706FAE220FFF703FA50
:104A8000BF20FFF70CFAAA20FFF7FDF9B020FFF7CF
:104A900006FA0D20FFF7F7F90020FFF7F4F90D20D3
:104AA000FFF7F1F90020FFF7EEF91120FFF7EBF91E
:104AB0000020FFF7E8F91920FFF7E5F90020FFF7DC
:104AC000E2F92120FFF7DFF90020FFF7DCF92D20C4
:104AD000FFF7D9F90020FFF7D6F93D20FFF7D3F90A
:104AE0000020FFF7D0F95D20FFF7CDF90020FFF798
:104AF000CAF95D20FFF7C7F90020FFF7C4F9B1201C
:104B00000AE0FDE398030020204C43442049443A46
:104B100025780D0A00000000FFF7C1F98020FFF79B
:104B2000B2F90020FFF7AFF98B20FFF7ACF90020B6
:104B3000FFF7A9F99620FFF7A6F90020FFF7A3F9E0
:104B4000B220FFF7ACF90020FFF79DF90020FFF736
:104B50009AF90220FFF797F90020FFF794F9032054
:104B6000FFF791F90020FFF78EF9B320FFF797F9CF
:104B70000020FFF788F90020FFF785F90020FFF7F4
:104B800082F90020FFF77FF90020FFF77CF9002071
:104B9000FFF779F90020FFF776F90020FFF773F9A6
:104BA0000020FFF770F90020FFF76DF90020FFF7F4
:104BB0006AF90020FFF767F90020FFF764F9002089
:104BC000FFF761F90020FFF75EF90020FFF75BF9BE
:104BD0000020FFF758F90020FFF755F90020FFF7F4
:104BE00052F90020FFF74FF90020FFF74CF90020A1
:104BF000FFF749F90020FFF746F90020FFF743F9D6
:104C0000B420FFF74CF98B20FFF73DF90020FFF7A8
:104C10003AF99620FFF737F90020FFF734F9A12081
:104C2000FFF731F90020FFF72EF9B520FFF737F92C
:104C30000220FFF728F90020FFF725F90320FFF7EE
:104C400022F90020FFF71FF90420FFF71CF90020CC
:104C5000FFF719F9B620FFF722F90020FFF713F943
:104C60000020FFF710F9B720FFF719F90020FFF730
:104C70000AF90020FFF707F93F20FFF704F90020A9
:104C8000FFF701F95E20FFF7FEF80020FFF7FBF8C1
:104C90006420FFF7F8F80020FFF7F5F88C20FFF705
:104CA000F2F80020FFF7EFF8AC20FFF7ECF8002057
:104CB000FFF7E9F8DC20FFF7E6F80020FFF7E3F85C
:104CC0007020FFF7E0F80020FFF7DDF89020FFF7F5
:104CD000DAF80020FFF7D7F8EB20FFF7D4F8002030
:104CE000FFF7D1F8DC20FFF7CEF80020FFF7CBF874
:104CF000B820FFF7D4F80020FFF7C5F80020FFF731
:104D0000C2F80020FFF7BFF80020FFF7BCF8002032
:104D1000FFF7B9F80020FFF7B6F80020FFF7B3F867
:104D20000020FFF7B0F8BA20FFF7B9F82420FFF70A
:104D3000AAF80020FFF7A7F80020FFF7A4F800204A
:104D4000FFF7A1F8C120FFF7AAF82020FFF79BF892
:104D50000020FFF798F85420FFF795F80020FFF7A0
:104D600092F8FF20FFF78FF80020FFF78CF8C220A1
:104D7000FFF795F80A20FFF786F80020FFF783F881
:104D80000420FFF780F80020FFF77DF8C320FFF72D
:104D900086F83C20FFF777F80020FFF774F83A20F8
:104DA000FFF771F80020FFF76EF83920FFF76BF876
:104DB0000020FFF768F83720FFF765F80020FFF7BD
:104DC00062F83C20FFF75FF80020FFF75CF8362020
:104DD000FFF759F80020FFF756F83220FFF753F895
:104DE0000020FFF750F82F20FFF74DF80020FFF7C5
:104DF0004AF82C20FFF747F80020FFF744F8292055
:104E0000FFF741F80020FFF73EF82620FFF73BF8B8
:104E10000020FFF738F82420FFF735F80020FFF7CF
:104E200032F82420FFF72FF80020FFF72CF823207A
:104E3000FFF729F80020FFF726F83C20FFF723F8BA
:104E40000020FFF720F83620FFF71DF80020FFF7BD
:104E50001AF83220FFF717F80020FFF714F82F2078
:104E6000FFF711F80020FFF70EF82C20FFF70BF8E2
:104E70000020FFF708F82920FFF705F80020FFF7CA
:104E800002F82620FEF7FFFF0020FEF7FCFF24209B
:104E9000FEF7F9FF0020FEF7F6FF2420FEF7F3FFF0
:104EA0000020FEF7F0FF2320FEF7EDFF0020FEF7C5
:104EB000EAFFC420FEF7F3FF6220FEF7E4FF0020C4
:104EC000FEF7E1FF0520FEF7DEFF0020FEF7DBFF27
:104ED0008420FEF7D8FF0020FEF7D5FFF020FEF774
:104EE000D2FF0020FEF7CFFF1820FEF7CCFF0020F6
:104EF000FEF7C9FFA420FEF7C6FF0020FEF7C3FFA0
:104F00001820FEF7C0FF0020FEF7BDFF5020FEF77F
:104F1000BAFF0020FEF7B7FF0C20FEF7B4FF002019
:104F2000FEF7B1FF1720FEF7AEFF0020FEF7ABFF44
:104F30009520FEF7A8FF0020FEF7A5FFF320FEF75F
:104F4000A2FF0020FEF79FFFE620FEF79CFF002057
:104F5000FEF799FFC520FEF7A2FF3220FEF793FF70
:104F60000020FEF790FF4420FEF78DFF0020FEF7A3
:104F70008AFF6520FEF787FF0020FEF784FF76207A
:104F8000FEF781FF0020FEF77EFF8820FEF77BFF03
:104F90000020FEF778FFC620FEF781FF2020FEF7F5
:104FA00072FF0020FEF76FFF1720FEF76CFF002056
:104FB000FEF769FF0120FEF766FF0020FEF763FFA2
:104FC000C720FEF76CFF0020FEF75DFF0020FEF714
:104FD0005AFF0020FEF757FF0020FEF754FFC820BD
:104FE000FEF75DFF0020FEF74EFF0020FEF74BFFAF
:104FF0000020FEF748FF0020FEF745FFC920FEF71E
:105000004EFF0020FEF73FFF0020FEF73CFF002090
:10501000FEF739FF0020FEF736FF0020FEF733FFD2
:105020000020FEF730FF0020FEF72DFF0020FEF7E6
:105030002AFF0020FEF727FF0020FEF724FF0020B4
:10504000FEF721FF0020FEF71EFF0020FEF71BFFEA
:105050000020FEF718FF0020FEF715FF0020FEF7E6
:1050600012FFE020FEF71BFF1620FEF70CFF0020CA
:10507000FEF709FF1C20FEF706FF0020FEF703FFE6
:105080002120FEF700FF0020FEF7FDFE3620FEF790
:10509000FAFE0020FEF7F7FE4620FEF7F4FE0020A1
:1050A000FEF7F1FE5220FEF7EEFE0020FEF7EBFECB
:1050B0006420FEF7E8FE0020FEF7E5FE7A20FEF70A
:1050C000E2FE0020FEF7DFFE8B20FEF7DCFE002074
:1050D000FEF7D9FE9920FEF7D6FE0020FEF7D3FE9C
:1050E000A820FEF7D0FE0020FEF7CDFEB920FEF787
:1050F000CAFE0020FEF7C7FEC420FEF7C4FE002053
:10510000FEF7C1FECA20FEF7BEFE0020FEF7BBFE82
:10511000D220FEF7B8FE0020FEF7B5FED920FEF73C
:10512000B2FE0020FEF7AFFEE020FEF7ACFE00204E
:10513000FEF7A9FEF320FEF7A6FE0020FEF7A3FE71
:10514000E120FEF7ACFE1620FEF79DFE0020FEF7E4
:105150009AFE1C20FEF797FE0020FEF794FE222008
:10516000FEF791FE0020FEF78EFE3620FEF78BFE46
:105170000020FEF788FE4520FEF785FE0020FEF7A2
:1051800082FE5220FEF77FFE0020FEF77CFE6420A8
:10519000FEF779FE0020FEF776FE7A20FEF773FE1A
:1051A0000020FEF770FE8B20FEF76DFE0020FEF75C
:1051B0006AFE9920FEF767FE0020FEF764FEA82035
:1051C000FEF761FE0020FEF75EFEB920FEF75BFEF3
:1051D0000020FEF758FEC420FEF755FE0020FEF723
:1051E00052FECA20FEF74FFE0020FEF74CFED220F2
:1051F000FEF749FE0020FEF746FED820FEF743FEEC
:105200000020FEF740FEE020FEF73DFE0020FEF706
:105210003AFEF320FEF737FE0020FEF734FEE220D0
:10522000FEF73DFE0520FEF72EFE0020FEF72BFECA
:105230000B20FEF728FE0020FEF725FE1B20FEF7C0
:1052400022FE0020FEF71FFE3420FEF71CFE002089
:10525000FEF719FE4420FEF716FE0020FEF713FEAF
:105260004F20FEF710FE0020FEF70DFE6120FEF736
:105270000AFE0020FEF707FE7920FEF704FE00205C
:10528000FEF701FE8820FEF7FEFD0020FEF7FBFD85
:105290009720FEF7F8FD0020FEF7F5FDA620FEF7AB
:1052A000F2FD0020FEF7EFFDB720FEF7ECFD002039
:1052B000FEF7E9FDC220FEF7E6FD0020FEF7E3FD64
:1052C000C720FEF7E0FD0020FEF7DDFDD120FEF750
:1052D000DAFD0020FEF7D7FDD620FEF7D4FD002032
:1052E000FEF7D1FDDD20FEF7CEFD0020FEF7CBFD61
:1052F000F320FEF7C8FD0020FEF7C5FDE32000E027
:105300000FE3FEF7CCFD0520FEF7BDFD0020FEF704
:10531000BAFD0A20FEF7B7FD0020FEF7B4FD1C2001
:10532000FEF7B1FD0020FEF7AEFD3320FEF7ABFD2A
:105330000020FEF7A8FD4420FEF7A5FD0020FEF7A3
:10534000A2FD5020FEF79FFD0020FEF79CFD62208D
:10535000FEF799FD0020FEF796FD7820FEF793FDFD
:105360000020FEF790FD8820FEF78DFD0020FEF75F
:105370008AFD9720FEF787FD0020FEF784FDA6201A
:10538000FEF781FD0020FEF77EFDB720FEF77BFDD6
:105390000020FEF778FDC220FEF775FD0020FEF725
:1053A00072FDC720FEF76FFD0020FEF76CFDD120D7
:1053B000FEF769FD0020FEF766FDD520FEF763FDD0
:1053C0000020FEF760FDDD20FEF75DFD0020FEF70A
:1053D0005AFDF320FEF757FD0020FEF754FDE420B0
:1053E000FEF75DFD0120FEF74EFD0020FEF74BFDB0
:1053F0000120FEF748FD0020FEF745FD0220FEF7E4
:1054000042FD0020FEF73FFD2A20FEF73CFD002074
:10541000FEF739FD3C20FEF736FD0020FEF733FD98
:105420004B20FEF730FD0020FEF72DFD5D20FEF73E
:105430002AFD0020FEF727FD7420FEF724FD002042
:10544000FEF721FD8420FEF71EFD0020FEF71BFD68
:105450009320FEF718FD0020FEF715FDA220FEF7B1
:1054600012FD0020FEF70FFDB320FEF70CFD00201B
:10547000FEF709FDBE20FEF706FD0020FEF703FD46
:10548000C420FEF700FD0020FEF7FDFCCD20FEF756
:10549000FAFC0020FEF7F7FCD320FEF7F4FC002016
:1054A000FEF7F1FCDD20FEF7EEFC0020FEF7EBFC42
:1054B000F320FEF7E8FC0020FEF7E5FCE520FEF710
:1054C000EEFC0020FEF7DFFC0020FEF7DCFC0020F5
:1054D000FEF7D9FC0020FEF7D6FC0220FEF7D3FC35
:1054E0000020FEF7D0FC2920FEF7CDFC0020FEF7BF
:1054F000CAFC3C20FEF7C7FC0020FEF7C4FC4B2092
:10550000FEF7C1FC0020FEF7BEFC5D20FEF7BBFCF1
:105510000020FEF7B8FC7420FEF7B5FC0020FEF773
:10552000B2FC8420FEF7AFFC0020FEF7ACFC932019
:10553000FEF7A9FC0020FEF7A6FCA220FEF7A3FCC4
:105540000020FEF7A0FCB320FEF79DFC0020FEF734
:105550009AFCBE20FEF797FC0020FEF794FCC420C6
:10556000FEF791FC0020FEF78EFCCD20FEF78BFCB1
:105570000020FEF788FCD320FEF785FC0020FEF714
:1055800082FCDC20FEF77FFC0020FEF77CFCF32091
:10559000FEF779FC0020FEF776FCE620FEF77FFCA4
:1055A0001120FEF770FC0020FEF76DFC3420FEF7A2
:1055B0006AFC0020FEF767FC5620FEF764FC002022
:1055C000FEF761FC7620FEF75EFC0020FEF75BFC38
:1055D0007720FEF758FC0020FEF755FC6620FEF70A
:1055E00052FC0020FEF74FFC8820FEF74CFC002008
:1055F000FEF749FC9920FEF746FC0020FEF743FC2D
:10560000BB20FEF740FC0020FEF73DFC9920FEF792
:105610003AFC0020FEF737FC6620FEF734FC002041
:10562000FEF731FC5520FEF72EFC0020FEF72BFC88
:105630005520FEF728FC0020FEF725FC4520FEF74C
:1056400022FC0020FEF71FFC4320FEF71CFC00207C
:10565000FEF719FC4420FEF716FC0020FEF713FCB1
:10566000E720FEF71CFC3220FEF70DFC0020FEF7C1
:105670000AFC5520FEF707FC0020FEF704FC76200C
:10568000FEF701FC0020FEF7FEFB6620FEF7FBFBA9
:105690000020FEF7F8FB6720FEF7F5FB0020FEF781
:1056A000F2FB6720FEF7EFFB0020FEF7ECFB872004
:1056B000FEF7E9FB0020FEF7E6FB9920FEF7E3FB8F
:1056C0000020FEF7E0FBBB20FEF7DDFB0020FEF72D
:1056D000DAFB9920FEF7D7FB0020FEF7D4FB7720FA
:1056E000FEF7D1FB0020FEF7CEFB4420FEF7CBFBFC
:1056F0000020FEF7C8FB5620FEF7C5FB0020FEF792
:10570000C2FB2320FEF7BFFB0020FEF7BCFB3320CB
:10571000FEF7B9FB0020FEF7B6FB4520FEF7B3FB12
:105720000020FEF7B0FBE820FEF7B9FB0020FEF7F3
:10573000AAFB0020FEF7A7FB9920FEF7A4FB0020A0
:10574000FEF7A1FB8720FEF79EFB0020FEF79BFBE8
:105750008820FEF798FB0020FEF795FB7720FEF7E8
:1057600092FB0020FEF78FFB6620FEF78CFB0020EB
:10577000FEF789FB8820FEF786FB0020FEF783FBFF
:10578000AA20FEF780FB0020FEF77DFBBB20FEF782
:105790007AFB0020FEF777FB9920FEF774FB0020D0
:1057A000FEF771FB6620FEF76EFB0020FEF76BFB39
:1057B0005520FEF768FB0020FEF765FB5520FEF73D
:1057C00062FB0020FEF75FFB4420FEF75CFB00203D
:1057D000FEF759FB4420FEF756FB0020FEF753FB73
:1057E0005520FEF750FB0020FEF74DFBE920FEF7A9
:1057F00056FBAA20FEF747FB0020FEF744FB0020E3
:10580000FEF741FB0020FEF73EFB0020FEF747FBC2
:10581000AA20FEF738FBCF20FEF741FB0020FEF761
:1058200032FB0020FEF72FFB0020FEF72CFB0020B0
:10583000FEF729FB0020FEF726FB0020FEF723FBE6
:105840000020FEF720FB0020FEF71DFB0020FEF7E6
:105850001AFB0020FEF717FB0020FEF714FB0020C8
:10586000FEF711FB0020FEF70EFB0020FEF70BFBFE
:105870000020FEF708FB0020FEF705FB0020FEF7E6
:1058800002FBF020FEF70BFB0020FEF7FCFA502095
:10589000FEF7F9FA0020FEF7F6FA0020FEF7F3FA19
:1058A0000020FEF7F0FAF320FEF7F9FA0020FEF7E9
:1058B000EAFAF920FEF7F3FA0620FEF7E4FA1020E0
:1058C000FEF7E1FA2920FEF7DEFA0020FEF7DBFA08
:1058D0003A20FEF7E4FA5520FEF7D5FA1120FEF73C
:1058E000DEFA6420FCF70AFD2920FEF7D8FA3520FD
:1058F000FEF7D5FA0020FEF7C6FA5120FEF7CFFAE0
:10590000FF20FEF7C0FA5320FEF7C9FA2C20FEF75D
:10591000BAFA5520FEF7C3FA8220FEF7B4FA2C201B
:10592000FEE3A8427ED14FF4704355211846FEF79E
:10593000CDFA4FF2010AAA215046FEF7C7FA4FF2FC
:10594000020B52215846FEF7C1FA08214FF203001C
:10595000FEF7BCFA01214FF20400FEF7B7FA0D2161
:105960004FF43040FEF7B2FA0D214BF20100FEF782
:10597000ADFA0D214BF20200FEF7A8FA34214FF4E4
:105980003640FEF7A3FA34214BF20160FEF79EFA8F
:1059900034214BF20260FEF799FA0D214FF43140A9
:1059A000FEF794FA0D214BF20110FEF78FFA0D214C
:1059B0004BF20210FEF78AFA34214FF43740FEF71B
:1059C00085FA34214BF20170FEF780FA34214BF254
:1059D0000270FEF77BFA00214FF43240FEF776FAB0
:1059E00000214BF20120FEF771FA00214BF2022058
:1059F000FEF76CFA24214FF43840FEF767FA2421B1
:105A00004BF60100FEF762FA24214BF60200FEF786
:105A10005DFA01214FF43F40FEF758FA0F214FF491
:105A2000334000E0FEE3FEF751FA0F214BF2013064
:105A3000FEF74CFA0F214BF20230FEF747FA342101
:105A40004FF43940FEF742FA34214BF60110FEF7CD
:105A50003DFA34214BF60210FEF738FA08214FF4D4
:105A60003540FEF733FA08214BF20150FEF72EFACB
:105A700008214BF20250FEF729FA03214FF442406D
:105A8000FEF724FA24214FF43A40FEF71FFA2421AE
:105A90004BF60120FEF71AFA24214BF60220FEF7FE
:105AA00015FA00214FF43C40FEF710FA78214BF62E
:105AB0000140FEF70BFA00214BF60240FEF706FA12
:105AC00000214FF43D40FEF701FA78214BF60150DA
:105AD000FEF7FCF900214BF60250FEF7F7F9002122
